:0300000002025A9F
:0C025A00787FE4F6D8FD7581200202A137
:1005DC0041494E30202041494E31202041494E3373
:0105EC00000E
:10059300C180011C00011D000517000000000001BF
:0205A300160040
:10018B0012050F12063C12050F12035F1205A6D2C1
:10019B00AF7F0A7E001202E612057F7BFF7A05799C
:1001AB00DCE4FDFF1204E7C2A07B007A007917752F
:1001BB0015057FA0120485D2A020A5FD7F0712068E
:1001CB002F8F0E7DFF7FE11205EDAD0E7F27120500
:1001DB00ED12050FAF0E120003AF0F120003AF109D
:1001EB00120003C200E4FF1204B78F088F0F8F17A2
:1001FB007B007A007909AD081203EC7B007A007959
:10020B00097D01E4FF1204E77F011204B78F088F09
:10021B00108F187B007A007909AD081203EC7B0074
:10022B007A0079097D017F061204E77F031204B778
:10023B008F088F197B007A007909AD081203EC7BCC
:0F024B00007A0079097D017F0C1204E70201B2ED
:04050F007FE87E0300
:10051300E4FDFCC3ED9FEC9E50167B6C7A00EB1B55
:100523008A8370011A458370F50DBD00010C80E3C9
:0105330022A5
:1002E60075140075131075120E751100E4FCFDAB44
:1002F60014AA13A912A81112005BE47BE87A03F989
:10030600F81200E68F148E138D128C11C3E4951427
:10031600F514E49513F51374019512F512E495118D
:10032600F511E514240CF514E43513F513E4351230
:10033600F512E43511F511AF14AE13AD12FC7808C1
:100346001201788F1C85141D5389F0438901851C81
:080356008C851D8AD2A9D28C0E
:01035E00227C
:03000B00020534B7
:04053400C0E0C0D093
:10053800851C8C851D8A0516E516C3941E40057515
:040548001600D200C7
:05054C00D0D0D0E03228
:0506430034431010011A
:10055100E4FEEF3392A3EF25E0FFD2A2A2A4E4339D
:080561004207C2A20EBE08EA27
:01056900226F
:1005ED00C2A1120551AC07AF05120551D2A1AF043E
:0105FD0022DB
:0C062F00C2A1120551E4FF120551D2A136
:01063B00229C
:060485008B128A1389149A
:10048B00C2A1120551AD07E4FCECC395155018AB96
:10049B00120514E514AA137002051314F912000EB9
:0B04AB00FF1205510C80E2D2A1AF054A
:0104B6002223
:10035F00C2A07DFF7FE11205ED7BFF7A0679437521
:10036F0015057F301204857BFF7A067943751505D5
:10037F007F2A1204857D057F311205ED7D017F21D6
:10038F001205ED7F221205ED7D1A7F241205ED7DFA
:10039F00287F251205ED7D077F261205ED7D0E7F47
:0703AF00201205EDD2A0228F
:07063C00C2A0D2A1D2A2224C
:1005A600758920759850758DFA758BFA438780D2B8
:0205B6008E2293
:080003008F993099FDC299228A
:0204B7008F11A3
:1004B9001205FE7F901203B6400612056A7F0022DC
:1004C900E5114440FF1203B61205FE7F911203B6EF
:0D04D90012045212041F8F1212056AAF1296
:0104E60022F3
:1003EC00ED75F064842430120027ED75F00A8475E5
:1003FC00F00A84E5F02430900001120039ED75F01C
:10040C000A84E5F02430900002120039900003E4D5
:03041C00020039A2
:1005FE00D2B6D2B700000000C2B600000000C2B7EB
:01060E0022C9
:10056A00C2B7C2B600000000D2B700000000D2B67F
:05057A0000000000225A
:1003B6007E80EE601B5F7004C2B68002D2B600007B
:1003C6000000D2B700000000C2B7EEC313FE80E201
:1003D600D2B600000000D2B7A2B69201000000001B
:0503E600C2B7A201B343
:0103EB0022EF
:10041F00D2B67E80EE601D00000000D2B720B60578
:10042F00F452078003EE420700000000C2B7EEC38C
:10043F0013FE80E0D2B600000000D2B7000000002B
:02044F00C2B732
:010451002288
:10045200D2B67E80EE601D00000000D2B720B60545
:10046200F452078003EE420700000000C2B7EEC359
:1004720013FE80E0C2B600000000D2B70000000008
:02048200C2B7FF
:010484002255
:1005B8007580FFC290D291D295AF80C295EF20E7A7
:0105C800F63C
:0105C900220F
:10060F00AE071205B8C290C2918E80D295C29522C4
:10061F00AE071205B8D290C2918E80D295C29522A4
:1005CA00ED7004AC078004EF2440FCEC4480FF0289
:0205DA00060F0A
:1004E7008B118A1289131205CAAB11AA12A913120A
:1004F700000E60130513E5137002051214F91200BC
:080507000EFF12061F80E22224
:10057F007F3812060F7F0C12060F7F0612060F7FB1
:04058F000102060F50
:1002660002018BE493A3F8E493A34003F68001F222
:1002760008DFF48029E493A3F85407240CC8C33399
:10028600C4540F4420C8834004F456800146F6DF68
:10029600E4800B0102040810204080900593E47E60
:1002A600019360BCA3FF543F30E509541FFEE4935D
:1002B600A360010ECF54C025E060A840B8E493A324
:1002C600FAE493A3F8E493A3C8C582C8CAC583CA4F
:1002D600F0A3C8C582C8CAC583CADFE9DEE780BE07
:0105A5000055
:10000E00BB010689828A83E0225002E722BBFE02F0
:09001E00E32289828A83E4932223
:10002700BB010689828A83F0225002F722BBFE01B8
:02003700F322B2
:10003900F8BB010DE58229F582E5833AF583E8F0FD
:10004900225006E92582C8F622BBFE05E92582C8A9
:02005900F22291
:10005B00E88FF0A4CC8BF0A42CFCE98EF0A42CFC44
:10006B008AF0EDA42CFCEA8EF0A4CDA8F08BF0A4C2
:10007B002DCC3825F0FDE98FF0A42CCD35F0FCEB21
:10008B008EF0A4FEA9F0EB8FF0A4CFC5F02ECD39E6
:0F009B00FEE43CFCEAA42DCE35F0FDE43CFC2253
:1000AA0075F008758200EF2FFFEE33FECD33CDCC0D
:1000BA0033CCC58233C5829BED9AEC99E582984090
:1000CA000CF582EE9BFEED9AFDEC99FC0FD5F0D66D
:1000DA00E4CEFBE4CDFAE4CCF9A88222B800C1B997
:1000EA000059BA002DEC8BF084CFCECDFCE5F0CBD5
:1000FA00F97818EF2FFFEE33FEED33FDEC33FCEB0E
:10010A0033FB10D703994004EB99FB0FD8E5E4F9C8
:10011A00FA227818EF2FFFEE33FEED33FDEC33FCB5
:10012A00C933C910D7059BE99A4007EC9BFCE99AA9
:10013A00F90FD8E0E4C9FAE4CCFB2275F010EF2FEE
:10014A00FFEE33FEED33FDCC33CCC833C810D707EE
:10015A009BEC9AE899400AED9BFDEC9AFCE899F829
:0E016A000FD5F0DAE4CDFBE4CCFAE4C8F922BC
:10017800E8600FECC313FCED13FDEE13FEEF13FF65
:03018800D8F12289
:00000001FF
